:1000000081C000009BC0000099C0000097C00000A4
:1000100095C0000093C0000091C000008FC0000098
:100020008DC000008BC0000089C000000C94810AC4
:1000300085C0000083C0000081C000007FC00000B8
:100040007DC000007BC0000079C0000077C00000C8
:1000500075C0000073C0000071C000006FC00000D8
:100060006DC000006BC0000069C0000067C00000E8
:1000700065C000001201100102000008EB034B20D4
:1000800000000102000109024300020100C0320920
:1000900004000001020201000524000110052401F2
:1000A0000301042402060524060001070582030853
:1000B00000FF09040100020A0000000705040240D5
:1000C0000000070583024000000403090424034CD8
:1000D0000069006D00650020004D0069006300723A
:1000E000006F00730079007300740065006D007389
:1000F0000000000E035A0069007000700065007275
:100100000000000011241FBECFEFD2E0DEBFCDBF44
:1001100011E0A0E0B1E0EAEAF6E102C005900D923C
:10012000A831B107D9F712E0A8E1B1E001C01D92F2
:10013000A63BB107E1F7B1D30C94530B61CF80918B
:100140001001823011F020E501C020E780911201FA
:10015000853011F42C6007C0863011F4286003C08C
:10016000873009F4246080910C0190910D01A091D9
:100170000E01B0910F01803835E2930730E0A307FC
:1001800030E0B30729F1803438E3930730E0A30768
:1001900030E0B30729F180303BE4930730E0A30758
:1001A00030E0B30711F4216013C0803036E99307C3
:1001B00030E0A30730E0B30711F4216011C08030B4
:1001C00031EE930730E0A30730E0B30719F4226063
:1001D00081E007C08050924CA140B04009F42260F9
:1001E00080E02CBD8DBD0895682FE0911501F09140
:1001F000160188E30E94470B9281891710F080E076
:100200000895E0911301F091140184E0818381E06D
:10021000089586E26FE19CD5863211F482E001C038
:1002200081E08093DD010895BF92CF92DF92EF923B
:10023000FF920F931F93CF93DF93809162028034DC
:1002400009F04AC22F9A109263020DC08EED91E020
:100250008ED6E12FF0E0E85EFE4F8083809163024E
:100260008F5F8093630210916302103478F380E40F
:10027000E4E6F2E0DF011D928A95E9F7A09115010D
:10028000B0911601E0911301F09114018C918083DB
:10029000E0911301F091140112968C9112978283D0
:1002A000E0911301F091140183E081838C918332FA
:1002B00009F4BDC0843278F4833109F444C0843138
:1002C00018F48823D9F0EEC1843109F462C0803279
:1002D00009F0E8C192C0813409F42BC1823438F4AA
:1002E000843209F4CBC0813309F0DCC1FCC0823414
:1002F00009F44EC1813509F0D5C1ADC18ADFE09165
:100300001301F09114011086E0911301F091140192
:1003100085E08187E0911301F091140191E09287CB
:10032000E0911301F091140182E08387E0911301C1
:10033000F09114018091DD018487E0911301F09127
:1003400014019183B5C182E04FDF882309F0B0C169
:1003500010E0C0E0D0E013C0812F90E0880F991F1B
:10036000FD01E80FF91F0996A80FB91F80EC608501
:1003700041E09D017ED3882309F421961F5FA0915F
:100380001501B091160112968C911297181720F34F
:10039000F7C082E029DF882309F08AC110E0C0E0BD
:1003A000D0E021C0212F30E0C901880F991FE091D2
:1003B0001301F0911401E80FF91FA20FB31F189653
:1003C0002C911897208709962091130130911401E0
:1003D000280F391F80EC18966C9141E086D3882352
:1003E00009F421961F5FA0911501B0911601129694
:1003F0008C9112971817B0F2C3C018968C91813067
:1004000031F0813090F0823009F08EC002C02C981B
:100410008BC02C9880E197E203C000000000000030
:100420000197BFEF8F3F9B07C1F72C9A7DC082E0F9
:10043000DBDE882309F03CC12898C0911501D091DA
:10044000160190E017C0A92FB0E0AA0FBB1FFE0154
:10045000EA0FFB1F8085806880878EBD0DB407FE84
:10046000FDCFAC0FBD1F19968C918EBD0DB407FE4C
:10047000FDCF9F5F8A81981730F333C082E0B4DEEE
:10048000882309F015C12898A0911501B091160193
:1004900090E022C0292F30E0FD01E20FF31F80859C
:1004A0008F7780878EBD0DB407FEFDCF220F331FDF
:1004B000E0911301F0911401E20FF31F8087E091A6
:1004C0001301F09114011EBC0DB407FEFDCF8EB5D3
:1004D000E20FF31F81879F5F12968C9112979817F6
:1004E000C8F2289A21C083E07FDE882309F0E0C0AB
:1004F000E0911501F0911601228190E013C02D9832
:1005000080858EBD0DB407FEFDCF81858EBD0DB4F7
:1005100007FEFDCF82858EBD0DB407FEFDCF2D9A5F
:100520009F5F3396921758F3E0911301F0911401F5
:1005300090C083E059DE882309F0BAC010E0C0E023
:10054000D0E017C0812F90E063E070E00E94350B8F
:10055000E80FF91F8085882319F0813041F402C02B
:1005600086E201C087E26185428534D301C02196CD
:100570001F5FE0911501F09116018281181710F3A9
:10058000E0911301F0911401CD2B09F462C05FC01A
:1005900083E02ADE882309F08BC0BB24CC24DD2431
:1005A00047C02B2D30E0C90163E070E00E94350B9D
:1005B0007C01220F331FE0911301F0911401EE0D25
:1005C000FF1DD801A20FB31F18968C911897808732
:1005D000E9012196E0911301F0911401EE0DFF1D48
:1005E000C00FD11F8885818718968C91882319F0B8
:1005F0008130D1F40CC0009113011091140186E2F6
:100600006885A6D30E0D1F1DF801828710C00091CA
:1006100013011091140187E268859AD30E0D1F1DF6
:10062000D8011A968C9303C00894C11CD11CB394B2
:100630000091150110911601F8018281B81608F495
:10064000B0CFE0911301F0911401CD2811F085E0B5
:100650002EC081E02CC0DDDDE0911501F091160186
:100660008085482F50E080FF02C0469A01C046981E
:1006700041FF02C0479A01C047988091DD019A016D
:1006800024703070823019F4232B19F004C0232B0E
:1006900011F05C9A01C05C9843FF02C05E9A08C0EA
:1006A0005E9806C0E0911301F091140182E081830D
:1006B000109263020CC0F0E0EC59FD4F88E591E028
:1006C00060811ED4809163028F5F80936302E0910A
:1006D0006302E03480F32F98DF91CF911F910F9147
:1006E000FF90EF90DF90CF90BF9008958091AC0283
:1006F000882309F459C084E08093E9008091E800E0
:1007000082FD06C01AC06091F1008EED91E0F8D331
:100710008091F200882321F080916202803899F75D
:100720008091F200882349F48091E800982F9B7F04
:100730009093E8008F778093E80083E08093E9004E
:100740008091DC01882381F18091E80085FFFCCF56
:1007500005C088E591E00BD48093F1008091DC0125
:10076000882321F08091F200803498F38091F20088
:100770009091E800292F2E7F2093E8009F77909397
:10078000E800803489F48091DC01882369F4809149
:10079000E80085FFFCCF8091E800982F9E7F909322
:1007A000E8008F778093E80008958091AE0281324F
:1007B00031F08232A9F1803209F048C019C080912D
:1007C000AD02813A09F042C08091E800877F8093B2
:1007D000E8008CE091E067E070E0C7D58091E80028
:1007E000982F9B7F9093E8008F778093E80008957F
:1007F0008091AD02813251F58091E800877F80932E
:10080000E8008CE091E067E070E0FBD58091E800C3
:10081000982F9E7F9093E8008F778093E8008FCC8D
:100820008091AD02813291F48091E800877F8093BE
:10083000E8008091E80080FFFCCF8091E800982FCD
:100840009E7F9093E8008F778093E800089582E080
:1008500061EC42E060D583E061E842E35CD584E08E
:1008600060E842E358D586E793E061E0A6D384E1EF
:1008700091E061E0A2C38DE19BE061E09EC386E769
:1008800093E060E09AD38DE19BE060E096D38EED3B
:1008900091E022D388E591E01FC31F93CF93DF93AC
:1008A00084B7877F84BF88E10FB6F8948093600097
:1008B000109260000FBE80E090E020E80FB6F89440
:1008C00020936100809361000FBE209A219A229AA2
:1008D000249A259A269A279A3E9A3F9A549A569A8B
:1008E000239A289A2D9A2E9A2C9A29DCBDD06DD164
:1008F0001092800084E0809381008EED91E0ECD234
:1009000088E591E0E9D213E01093A502ECD51093AD
:10091000A502C0E0D1E007C08A81882319F0E881F0
:10092000F9810995249681E0CC30D807A9F72C9756
:10093000FACF27E030E0482F50E0CA01022E02C073
:10094000959587950A94E2F780FF02C0599A01C0F5
:1009500059980000000000000000000000000000A6
:10096000000000000000589A000000000000000095
:100970000000000000000000000000005898215016
:1009800030408FEF2F3F3807C1F6599A5198000039
:100990000000000000000000000000000000000057
:1009A0000000589A29B1000000000000000000007B
:1009B000000000000000000000005898519A00005C
:1009C0000000000000000000000000000000000027
:1009D0000000269581E0282730E021703070C901A1
:1009E0000895599A519827E030E040E00000000057
:1009F00000000000000000000000000000000000F7
:100A0000589A440F4999416000000000000000001E
:100A10000000000000000000000000005898215075
:100A200030405FEF2F3F350709F7519A892B11F0BE
:100A3000599A01C059980000000000000000000011
:100A400000000000000000000000589A00000000B4
:100A50000000000000000000000000000000000096
:100A60005898599A842F0895519A509A599A589A99
:100A70000895FF920F931F93CF93DF93162F042FA8
:100A8000E90159980000000000000000000058989B
:100A900050DFF82E812F4DDF03C089914ADF0150CE
:100AA0000023D9F759980000000000000000000062
:100AB00000000000000000000000589A0000000044
:100AC000000000000000599A000000000000000033
:100AD0000000000000000000000000008F2DDF91EA
:100AE000CF911F910F91FF900895BF92CF92DF9207
:100AF000EF92FF920F931F93CF93DF93082F162F40
:100B0000D42EF22EE32E59980000000000000000C1
:100B1000000058980EDFB82E812F0BDF0000000078
:100B200000000000000000000000000000000000C5
:100B3000589A5998000000000000000000005898E2
:100B4000802F8160F6DE2F2D3E2DC901EC0100E0E3
:100B500010E0ED2CFF2467010894C11CD11C09C0D2
:100B600080E090E0E016F10611F481E090E039DFDA
:100B700089930F5F1F4F0C151D0591F759980000C1
:100B80000000000000000000000000000000000065
:100B90000000589A00000000000000000000599A70
:100BA0000000000000000000000000000000000045
:100BB000000000008B2DDF91CF911F910F91FF90CE
:100BC000EF90DF90CF90BF900895429845983D9A5E
:100BD0003A9A0895DF93CF9300D000D0CDB7DEB717
:100BE0008A836B834C8382E08983429845983D9A3F
:100BF000459A00000000000000000000459851E008
:100C000023E030E0FE01329641E0429A808190E09C
:100C1000022E02C0959587950A94E2F780FF03C0E3
:100C2000459A542701C045984298215030408FEF93
:100C30002F3F380751F78B818823F9F4429A459A60
:100C4000429826E030E0FE013496429A808190E09E
:100C5000022E02C0959587950A94E2F780FF02C0A4
:100C6000459A01C045984298215030408FEF2F3F60
:100C7000380759F741E0452759C022E030E0FE012E
:100C8000319641E0429A808190E0022E02C0959513
:100C900087950A94E2F780FF03C0459A542701C064
:100CA00045984298215030408FEF2F3F380751F739
:100CB00024E030E0FE01339641E0429A808190E0EA
:100CC000022E02C0959587950A94E2F780FF03C033
:100CD000459A542701C045984298215030408FEFE3
:100CE0002F3F380751F7429A552311F0459A01C01A
:100CF0004598429841E027E030E0FE01349651E00B
:100D0000429A808190E0022E02C0959587950A94C0
:100D1000E2F780FF03C0459A452701C045984298F5
:100D2000215030408FEF2F3F380751F7429A44232C
:100D300011F0459A01C045984298429A45983D98CD
:100D400042980F900F900F900F90CF91DF910895E0
:100D5000DF93CF9300D00F92CDB7DEB78A836B833A
:100D600083E08983429845983D9A459A00000000A7
:100D7000000000000000459841E023E030E0FE0163
:100D8000329651E0429A808190E0022E02C0959501
:100D900087950A94E2F780FF03C0459A452701C072
:100DA00045984298215030408FEF2F3F380751F738
:100DB00022E030E0FE01319651E0429A808190E0DD
:100DC000022E02C0959587950A94E2F780FF03C032
:100DD000459A452701C045984298215030408FEFF1
:100DE0002F3F380751F724E030E0FE01339651E001
:100DF000429A808190E0022E02C0959587950A94D0
:100E0000E2F780FF03C0459A452701C04598429804
:100E1000215030408FEF2F3F380751F7429A44233B
:100E200011F0459A01C045984298429A45983D98DC
:100E3000429840E027E030E061E070E0429A42985A
:100E4000359B08C0CB01022E02C0880F991F0A945F
:100E5000E2F7482B215030408FEF2F3F380771F7D2
:100E6000429A429886B1429A45983D984298842F7A
:100E70000F900F900F90CF91DF910895DA0192308B
:100E800049F0933061F09130F9F4E4E7F0E022E1C9
:100E900030E01EC0E6E8F0E023E430E019C0813025
:100EA00049F0813018F0823079F408C0E9ECF0E0C4
:100EB000849107C0EDECF0E0849103C0E3EFF0E033
:100EC0008491282F30E004C0E0E0F0E020E030E042
:100ED000ED93FC93C9010895FC018FB7F894DF01ED
:100EE000A058BF4F1196FC93EE93DF01AE57BF4F52
:100EF0001196FC93EE93EC57FF4F10828FBF08952D
:100F0000AC017FB7F894FC01EC57FF4F808180382B
:100F100099F4FA01EE57FF4F8081918101969183F8
:100F2000808320813181CA0180589F4F281739075B
:100F300031F45183408303C080818F5F8083DA0165
:100F4000A058BF4FED91FC91119760838D919C91BA
:100F50001197019611969C938E93ED91FC911197A8
:100F6000EA17FB0711F4518340837FBF0895AC015A
:100F70007FB7F894DC01AE57BF4FED91FC9111970C
:100F800060818D919C911197019611969C938E93FF
:100F9000FA01EC57FF4F8081815080832D913C9165
:100FA0001197CA0180589F4F2817390719F41196D5
:100FB0005C934E937FBF862F08959C01E0E0F1E0A3
:100FC00008C0808191818217930711F4628308958C
:100FD00034968091A50290E0880F991F880F991F81
:100FE00080509F4FE817F90761F70895DF93CF937B
:100FF00000D0CDB7DEB7EDEAF2E08091F100819349
:1010000082E0E53BF807C9F78091AD023091AE026E
:10101000353009F499C0363048F4313009F445C010
:10102000313070F0333009F062C13FC0383009F41C
:101030001CC1393009F43CC1363009F058C19FC099
:10104000803821F0823809F052C108C09091A8027E
:101050008091A902882391F0926010C08091B10222
:101060008093E9008091EB0090E025E096958795CC
:101070002A95E1F7982F91701092E9008091E8008D
:10108000877F8093E8009093F1001092F1008091A7
:10109000E800982F9E7F9093E8008F778093E80078
:1010A0008091E80082FFFCCFF9C0882319F08230DC
:1010B00009F01DC190E08F719070009719F00297B0
:1010C000B9F50CC08091AF02813009F011C11092C6
:1010D000A902333069F58093A9022AC08091AF023A
:1010E000882331F52091B102277009F401C12093C2
:1010F000E9008091EB0080FF1BC03130A1F48091AA
:10110000EB0080618093EB0081E090E002C0880FEB
:10111000991F2A95E2F78093EA001092EA008091E5
:10112000EB00886003C08091EB0080628093EB004D
:101130001092E9008091E800877F8093E800809119
:10114000E800982F9E7FAEC0882309F0D0C0809120
:10115000E800877F8093E8008091E800982F9E7FC9
:101160009093E8008F778093E8008091E80080FFFB
:10117000FCCF8091AF0280688093E300B9C08058B3
:10118000823008F0B4C08091AF029091B0026091BB
:10119000B102AE014F5F5F4F71DE9C01009709F411
:1011A000A7C08091E800877F8093E8008091B30218
:1011B0009091B4022817390720F43093B402209399
:1011C000B30279816A812091B3023091B40240E088
:1011D00031C08091E80082FF05C03093B4022093B3
:1011E000B3025CC08091E80080FFF3CF872F962F79
:1011F000FC0105C084918093F10031969A017E2F05
:101200006F2F2115310539F08091F200A90141506D
:101210005040883078F38091F20040E0883009F443
:1012200041E08091E800982F9E7F9093E8008F77AF
:101230008093E80021153105A9F61092B4021092AE
:10124000B302442369F08091E80080FFFCCF8091D5
:10125000E800982F9E7F9093E8008F778093E800B6
:101260008091E80082FFFCCF19C0803809F03FC0B0
:101270008091E800877F8093E8008091AA028093A4
:10128000F1008091E800982F9E7F9093E8008F777F
:101290008093E8008091E80082FFFCCF8091E80015
:1012A000982F9B7F9093E8008F778093E80020C071
:1012B0008823E9F43091AA022091AF022230C0F4D1
:1012C0008091E800877F8093E8002093AA028091B4
:1012D000E800982F9E7F9093E8008F778093E80036
:1012E000332319F4222309F005D1B1DA01C05DDA04
:1012F0008091E80083FF0AC08091EB0080628093B8
:10130000EB008091E800877F8093E8000F900F90BA
:10131000CF91DF9108958093E9008091EB00816087
:101320008093EB001092ED006093EC004093ED0091
:101330008091EE00881F8827881F08951092F4007E
:1013400090E09093E9001092F0001092E8008091F4
:10135000ED008D7F8093ED008091EB008E7F809378
:10136000EB009F5F953069F70895FC014091B3024F
:101370005091B4029B014617570708F49A0140E0C8
:101380001EC08091E80080FFFCCF06C08191809351
:10139000F1002150304021F08091F2008830B0F30C
:1013A0008091F20040E0883009F441E08091E8004B
:1013B000982F9E7F9093E8008F778093E800211507
:1013C000310521F08091E80082FFDBCF8091E800B9
:1013D00082FF02C081E00895442369F08091E80013
:1013E00080FFFCCF8091E800982F9E7F9093E800CB
:1013F0008F778093E8008091E80082FFFCCF80E047
:101400000895FC0118C08091E80082FFFCCF06C05F
:101410008091F10081936150704021F08091F20041
:101420008823B1F78091E800982F9B7F9093E80084
:101430008F778093E8006115710529F78091E800A6
:1014400080FFFCCF80E0089556D058D01092AC02B7
:101450001092AA021092B5021092A9021092A8024C
:1014600019BC89B5826089BD09B400FEFDCF8091A9
:10147000D800982F9F779093D80080688093D800E9
:10148000809163008E7F809363008091D8008F7D70
:101490008093D8008091E0008E7F8093E00080915F
:1014A000E20081608093E2008091E2008860809396
:1014B000E20008958091AC02882309F0E0D9809180
:1014C000E00081608093E00016D018D01092AC024A
:1014D0001092AB021092AA028091D8008F7780936D
:1014E000D80019BC0895E6DFAFDF81E08093AB023E
:1014F0007894089508951092E20008951092E10002
:1015000008951F920F920FB60F9211242F933F93BD
:101510004F935F936F937F938F939F93AF93BF93FB
:10152000EF93FF938091E10080FF24C08091E2005F
:1015300080FF20C08091E1008E7F8093E100809148
:10154000E2008E7F8093E2008091E20080618093D0
:10155000E2008091D80080628093D80019BC81E0BD
:101560008093B502C7DF8091AC02882319F01092F6
:10157000AC0285D98091E10084FF2AC08091E2000D
:1015800084FF26C019BC89B5826089BD09B400FEFC
:10159000FDCF8091D8008F7D8093D8008091E100AD
:1015A0008F7E8093E1008091E2008F7E8093E20045
:1015B0008091E20081608093E2008091AC028823F8
:1015C00021F481E08093AC0256D91092B50292DFEB
:1015D0008091E10083FF20C08091E20083FF1CC066
:1015E0008091E100877F8093E1001092AA028091B0
:1015F000E1008E7F8093E1008091E2008E7F8093F6
:10160000E2008091E20080618093E20097DE80E05A
:1016100060E042E080DE6EDFFF91EF91BF91AF911D
:101620009F918F917F916F915F914F913F912F91FA
:101630000F900FBE0F901F9018950F931F938091DE
:10164000AC02882379F00091E9001092E9008091C2
:10165000E80083FF04C01FB7F894C8DC1FBF077001
:101660000093E9001F910F9108955527002480FFF2
:1016700002C0060E571F660F771F6115710521F016
:1016800096958795009799F7952F802D0895991B2A
:1016900079E004C0991F961708F0961B881F7A9569
:0A16A000C9F780950895F894FFCF74
:1016AA001D0B0000760300001401000080250000D5
:0816BA000000086402180100A1
:00000001FF
