:05023400D310AF01C36F
:0E023900C0D090E6087402F0C2DFC2C7D2C681
:09024700C2C5D2C4D0D092AF228E
:0902500030C0FD85C182C2C0224C
:02025900AA8277
:05025B0010C10280FB50
:030260008AC1222E
:0E026300AA82BA0A0A75820DC002120259D090
:01027100028A
:0E0272008A82C002120259D002BA0D067582AD
:040280000A02025913
:010284002257
:07028500AA82E5262521F500
:04028C002CE5273501
:0402900022F52D9096
:0A0294003C00E4F0EA2AFA752E029D
:0B029E00903C00E0FE6004758200222E
:0E02A90090E678E04480F090E678E0FE30E2E7
:0D02B7000C90000AC002121314D00280DA6D
:0502C40090E679EAF06C
:0E02C90090E678E0FE20E007903C00E0FE604A
:0102D700F135
:0B02D800903C00E0FE600475820022F4
:0E02E30090E678E0FE20E2B390E678E0FE20A0
:0A02F100E13690E678E0FE4440F0AC
:0E02FB0090E678E0FE30E607903C00E0FE6002
:01030900F102
:0B030A00903C00E0FE600475820022C1
:07031500D52E0475820022C1
:0D031C0090000AC002121314D00202029ECB
:040329007E007F00D3
:0A032D00C3EE952CEF952D4003025E
:0203370003CAF7
:0A033900C3EE9521EF95225016EE59
:080343002523F8EF3524F9AD84
:0C034B0025888289838DF012136AFD80E2
:010357001D88
:0A035800EEC39521F8EF9522F9E8B5
:080362002528F8E93529F9AB63
:0B036A002A888289838BF012136AFD41
:0A03750090E679EDF00EBE00010FD6
:0E037F0090E678E0FB20E007903C00E0FB6099
:01038D00F17E
:0B038E00903C00E0FB60047582002240
:0B03990090E678E0FB30E20302029ED9
:0B03A40090E678E0FB30E10302032D3F
:0803AF0090E678E0FA4440F00A
:0E03B70090E678E0FA30E607903C00E0FA604D
:0103C500F146
:0403C600758200221A
:0C03CA00E52B601790E678E0FA4440F064
:0E03D60090E678E0FA30E607903C00E0FA602E
:0103E400F127
:0B03E500903C00E0FA600475820022EA
:0403F00075820122EF
:0E03F400AA82903C00E4F0EA2AFA4302017467
:0A04020001B52F08E4B530047401C1
:02040C0080016D
:01040E00E409
:01040F00FBF1
:0B041000903C00E0FC600475820022BC
:0E041B007C007D0090E678E04480F090E6786A
:0D042900E0FE30E21090000AC002C0031295
:080436001314D003D00280D2A0
:05043E0090E679EAF0F0
:0E04430090E678E0FE20E007903C00E0FE60CE
:01045100F1B9
:0B045200903C00E0FE60047582002278
:0E045D0090E678E0FE20E2AB90E678E0FE202C
:0A046B00E11B90E678E0FE4440F04B
:0E04750090E678E0FE30E607903C00E0FE6086
:01048300F187
:04048400758200225B
:0B048800EB600890E678E0FE4420F0F6
:0904930090E679E0E4F534F5355A
:0A049C0074012534F8E43535F9C386
:0804A600E8952FE9953050693B
:0E04AE0090E678E0F820E007903C00E0F8606F
:0104BC00F14E
:0B04BD00903C00E0F860047582002213
:0B04C80090E678E0F830E20302041038
:0A04D30074022534F8E43535F9E829
:0A04DD00B52F0CE9B5300890E67861
:0504E700E0F84420F0E4
:0504EC00A834A935054C
:0604F10034E4B5340205FD
:0104F70035CF
:0604F800AC34AD35E8252F
:0704FE0031F8E93532F9AED7
:0C0505003390E679E0FF888289838EF055
:060511001212FB02049C23
:0E05170090E678E0FE20E007903C00E0FE60F9
:01052500F1E4
:0B052600903C00E0FE600475820022A3
:0B05310090E678E0FE30E203020410C8
:0C053C0090E678E04440F0EC2531FCED46
:0A0548003532FDAA3390E679E0FB9E
:090552008C828D838AF01212FBE9
:0E055B0090E678E0FA30E607903C00E0FA60A7
:01056900F1A0
:0B056A00903C00E0FA60047582002263
:040575007582012268
:0705790085823DE4F541F528
:0405800042AD36AEA4
:01058400373F
:06058500C3E5419538E5D5
:06058B0042953940030215
:02059100060E54
:0E0593007F0090E678E0FA30E4067F018E02E9
:0205A1008A3E90
:0C05A3008F020FEA243EF88D02A6028FA2
:0905AF00020FEA243EF8AA41AB58
:0505B800420541E4B51D
:0405BD0041020542B0
:0905C100EA253AFAEB353BFBACEC
:0C05CA003C8A828B838CF012136AF68F3F
:0505D6002175220075F3
:0305DB00233E7547
:0705DE002400752540E4F53F
:0405E50026F527F5DB
:0405E90028F529F5D3
:0505ED002A752B0185B9
:0C05F2003D82C005C006120285E582D0E3
:0805FE0006D0057003F582220E
:050606000DBD00010E16
:03060B0002058560
:04060E0075820122CE
:0E061200AA827B0090E678E0FC30E4067B01D3
:04062000AC448C4A10
:0A0624008B040BEC244AF8AC43A64B
:07062E00048B217522007509
:03063500234A75E0
:070638002400752540E4F5E4
:04063F0026F527F580
:0406430028F529F578
:090647002A752B018A82C00212FF
:0B0650000285E582D0027003F58222D3
:04065B0085452F851D
:03065F004630859D
:0306620047318598
:0306650048328593
:0506680049338A8212F3
:09066D0003F4E5827003F582221A
:040676007582012266
:040000000201BB320C
:01000B0032C2
:0100130032BA
:01001B0032B2
:0100230032AA
:01002B0032A2
:030033000207724F
:01003B003292
:01004300328A
:01004B003282
:01005300327A
:01005B003272
:01006300326A
:03006B0002077514
:03007300020EEE8C
:03007B00020F046D
:030083000207BDB4
:03008B0002078DDC
:030093000207A5BC
:03009B00020F054C
:0300A300020F0643
:0300AB00020F073A
:0300B300020F0831
:0300BB00020F0928
:0300C300020F0A1F
:0300CB00020F0B16
:0300D300020F0C0D
:0300DB00020F0D04
:0300E300020F0EFB
:0300EB00020F0FF2
:0300F300020F10E9
:0300FB00020F11E0
:03010300020F12D6
:03010B00020F13CD
:03011300020F14C4
:03011B00020F15BB
:03012300020F16B2
:03012B00020F17A9
:03013300020F18A0
:03013B00020F1997
:03014300020F1A8E
:03014B00020F1B85
:03015300020F1C7C
:03015B00020F1D73
:03016300020F1E6A
:03016B00020F1F61
:03017300020F2058
:03017B00020F214F
:03018300020F2246
:03018B00020F233D
:03019300020F2434
:03019B00020F252B
:0301A300020F2622
:0301AB00020F2719
:0301B300020F2810
:05021400C200C201C29E
:0302190002C2031B
:030231000201B611
:0501B60012067A80FE34
:0B067A0090E6007410F0E500D2E8905C
:0E068500E668E04408F090E65CE04401F09086
:0E069300E65CE04410F090E65CE04420F0905D
:0E06A100E65CE04408F0D2DD1207D5D2AF903F
:0E06AF00E680E0FA20E11590E680E0440AF0D3
:0E06BD009005DC12131490E680E0FA54F7F07A
:0506CB00100002800395
:0306D000120F29DD
:0506D300100102800689
:0606D8007582011211FF02
:0506DE0010020280067D
:0606E3007582001211FFF8
:0606E90010030302076C80
:0E06EF0090E682E0FA44C0F090E6817401F0DB
:0C06FD0043870100000000000000E50A37
:0E070900702690E682E0FA30E60B90E682E081
:07071700FA30E0030206EFD7
:0E071E0090E682E0FA30E70B90E682E0FA30D7
:05072C00E1030206EFED
:0E07310090E682E0FA30E60890E682E0FA20D8
:02073F00E010C8
:0E07410090E682E0FA30E72390E682E0FA309C
:02074F00E11BAC
:0E07510090000512131490E680E04401F09031
:0D075F00000F12131490E680E0FA54FEF033
:06076C00120EA80206CBEC
:03077200C2DC32B4
:0C077500C0E0C082C083D2005391EF901E
:0C078100E65D7401F0D083D082D0E0323D
:0C078D00C0E0C082C083D2025391EF9004
:0C079900E65D7410F0D083D082D0E03216
:0C07A500C0E0C082C083D2015391EF90ED
:0C07B100E65D7420F0D083D082D0E032EE
:0C07BD00C0E0C082C083D2035391EF90D3
:0C07C900E65D7408F0D083D082D0E032EE
:03021C00754D001D
:0E07D50090E60174E3F00000000090E60B7463
:0E07E30003F00000000090E61474E0F0000047
:0D07F100000090E61274A0F00000000090DF
:0E07FE00E61074A0F00000000090E61174A058
:0E080C00F00000000090E6A2E4F00000000002
:0D081A0090E613E0FA547FF000000000901B
:0E082700E615E0FA547FF00000000090E604B1
:0E0835007480F00000000090E6047482F00071
:0E08430000000090E6047484F00000000090B5
:0E085100E6047486F00000000090E60474884F
:0E085F00F00000000090E604E4F0000000004D
:0E086D0090E68D7440F00000000090E64974A3
:0E087B0082F00000000090E6497482F0000058
:0D088900000090E6497482F000000000902D
:0E089600E6497482F00000000090E61A740D2E
:0E08A400F090E6187415F00000000090E67069
:0D08B200E4F00000000075B28A75800A9025
:0E08BF00E609E4F00000000090E6247402F068
:0E08CD000000000090E625E4F000000000901E
:0C08DB00E65CE04402F0750A010208E748
:0708E7007550F6754E0F7508
:0308EE002350751F
:0608F1002400752540758E
:0308F700284E7513
:0608FA002900752A40757B
:060900002101E4F522755F
:060906002601E4F527754F
:09090C002B017582281202857589
:0609150050F7754E557508
:03091B00235075F1
:06091E0024007525407560
:03092400284E75E5
:060927002900752A40754D
:06092D002101E4F5227532
:060933002601E4F5277522
:090939002B01758228120285755C
:0609420050F4754E037530
:03094800235075C4
:06094B0024007525407533
:03095100284E75B8
:060954002900752A407520
:06095A002101E4F5227505
:060960002601E4F52775F5
:090966002B01758228120285752F
:06096F0050F6754E027502
:0309750023507597
:0609780024007525407506
:03097E00284E758B
:060981002900752A4075F3
:060987002101E4F52275D8
:06098D002601E4F52775C8
:090993002B017582281202857502
:06099C0050F0754E0075DD
:0309A2002350756A
:0609A500240075254075D9
:0309AB00284E755E
:0609AE002900752A4075C6
:0609B4002101E4F52275AB
:0609BA002601E4F527759B
:0809C0002B017582280202855B
:0709C8007551807552E775BF
:0A09CF0053C07554E790E68DE0FE7A
:0609D9008E55E4F556F511
:0409DF0057F558AEC2
:0409E30051AF528539
:0309E700536585D0
:0209EA00546651
:0609EC00C3E5579555E537
:0609F200589556501F85C8
:0A09F8006582856683740AF0A3850A
:060A020082658583660594
:060A080057E4B55702059A
:010A0E00588F
:070A0F000EBE00D90F80D6D6
:070A16007551807552E77570
:060A1D0053C07554E7858B
:0A0A23005182855283E0FEBE1003ED
:030A2D00020CAC0C
:060A3000BE1403020B647A
:060A3600BE1503020AB820
:060A3C00BE1603020E00CD
:060A4200BE1703020D4D7A
:060A4800BE3003020BECBE
:060A4E00BE3103020C5C46
:050A5400BE400280031A
:030A5900020E99F1
:0A0A5C00855182855283A3E0FEBE9F
:040A660010028003F7
:030A6A00020E99E0
:0E0A6D0090E6047480F00000000090E61A7419
:0E0A7B0001F00000000090E6047406F0000098
:0E0A8900000090E604E4F00000000090E61A81
:0C0A9700740DF000000000E55524FFFE87
:0A0AA300E55634FFFFEE2553F582FF
:0B0AAD00EF3554F5837454F0020E99ED
:0A0AB80074012551FEE43552FF746D
:070AC200022551F565E43542
:050AC90052F566E4F5A2
:030ACE0057F55881
:0A0AD100856582856683E0FC7D00E8
:0A0ADB00C3E5579CE5589D40030257
:020AE5000E9968
:0E0AE7008E828F83E0C313FC747F5CF58274F3
:0A0AF500042557FCE43558FDEC25FC
:070AFF0051FCED3552FD8CA6
:040B0600238D2475A2
:070B0A002500752101E4F54F
:050B110022E4F526F5C9
:040B160027F528F5A2
:040B1A0029F52AF59A
:0C0B1E002BC006C007120285D007D006CD
:0E0B2A008E828F83E0C313FC747F5CF582E53E
:050B3800572553FCE508
:050B3D00583554FD8C49
:040B4200318D32754A
:070B46003300752F01E4F5F7
:0C0B4D0030C006C0071203F4D007D00629
:070B59000557E4B557020542
:010B6000583C
:030B6100020AD1B4
:0A0B640074012551FCE43552FD74C4
:0A0B6E00022551FEE43552FFE4F5C4
:030B780057F558D6
:0C0B7B008E828F83E0FA7B00C3E5579A5E
:080B8700E5589B4003020E99A2
:0E0B8F008C828D83E0C313FA747F5AF582E5E1
:050B9D00572557FAE5A1
:0C0BA2005833FB74042AFAE43BFBEA25FC
:070BAE0051FAEB3552FB8AFE
:040BB500238B2475F5
:070BB9002500752102E4F59F
:050BC00022E4F526F51A
:040BC50027F528F5F3
:040BC90029F52A756B
:0B0BCD002B01C004C005C006C00712C9
:0C0BD8000285D007D006D005D0040557D8
:080BE400E4B557930558808F1A
:0A0BEC00AA8074022551FBE4355283
:060BF600FCE4F557F55880
:0C0BFC008B828C83E0FF7D00C3E5579FD7
:0A0C0800E5589D504A74042557FD7D
:0A0C1200E43558FEED2551F582EEA1
:0C0C1C003552F583E0FD30E00543020294
:020C2800800347
:030C2A005302FD75
:0A0C2D0074042557FDE43558FEED70
:0A0C37002551F582EE3552F583E0F9
:090C4100FD30E1054302088003C7
:030C4A005302F75B
:070C4D000557E4B557A905A6
:030C54005880A520
:050C57008A80020E99E5
:0A0C5C00AA8074022551FBE4355212
:060C6600FCE4F557F5580F
:0C0C6C008B828C83E0FF7D00C3E5579F66
:0A0C7800E5589D502A74042557FD2D
:0A0C8200E43558FEED2551F582EE31
:0C0C8C003552F583E0FD30E005430280A6
:020C98008003D7
:030C9A0053027F83
:070C9D000557E4B557C90536
:030CA4005880C5B0
:050CA7008A80020E9995
:090CAC00855182855283A3E0F515
:070CB500637564F47402256D
:080CBC0051FBE43552FCE4F5A4
:030CC40057F55889
:0C0CC7008B828C83E0FF7D00C3E5579F0B
:080CD300E5589D4003020E9953
:0A0CDB0074042557FDE43558FEEDC2
:0A0CE5002551FDEE3552FE8D828E82
:090CEF0083E060057559038003E0
:030CF8007559002B
:040CFB007523647584
:060CFF002400752540757C
:030D0500285975F5
:060D08002900752A407568
:060D0E002101E4F522754D
:060D14002601E4F527753D
:0A0D1A002B01856382C003C00412A0
:0E0D24000285D004D0038B828C83E0FD24FE78
:0E0D3200500E90000AC003C004121314D00427
:020D4000D003DE
:070D42000557E4B557020557
:010D49005851
:030D4A00020CC7D1
:090D4D00855182855283A3E0F573
:080D56006374022551FBE43532
:060D5E0052FCE4F557F51C
:010D64005836
:0C0D65008B828C83E0FF7D00C3E5579F6C
:080D7100E5589D4003020E99B4
:0A0D790075640174042557FDE4358C
:090D830058FEED2551F582EE3514
:080D8C0052F583E0FD8D59755D
:040D94005A00752369
:050D98006475240075E4
:040D9D002540752850
:050DA1005975290075E1
:070DA6002A40752101E4F56C
:060DAD0022752602E4F5A8
:050DB30027752B0185EE
:0C0DB8006382C003C004120285D004D086
:010DC400032B
:040DC50075315975B6
:060DC90032007533407595
:060DCF002F02E4F530855F
:0C0DD5006382C003C0041203F4E582D066
:0A0DE10004D00360DFE5572553F549
:080DEB0082E5583554F583E55B
:060DF3005AF00557E4B5BB
:040DF9005702055840
:030DFD00020D657F
:090E0000855182855283A3E0F5BF
:080E09006374022551FBE4357E
:060E110052FCE4F557F568
:010E17005882
:0C0E18008B828C83E0FF7D00C3E5579FB8
:090E2400E5589D5070756401E56C
:050E2D00572557FDE50B
:0C0E32005833FE74042DFFE43EFAEF2557
:0A0E3E0051F582EA3552F583E0FA1F
:0B0E48008A5974052DFDE43EFEED25E7
:0A0E530051F582EE3552F583E0FA06
:040E5D008A5A752315
:050E610064752400751A
:040E66002540752886
:050E6A00597529007517
:070E6F002A40752101E4F5A2
:060E760022752602E4F5DE
:050E7C0027752B018524
:0C0E81006382C003C004120285D004D0BC
:080E8D00030557E4B557020507
:010E95005804
:030E9600020E1831
:0C0E99000000000090E68FE555F000001E
:030EA50000002228
:080EA80090E6A1E0FA20E1153B
:0E0EB00090E6A2E0FA20E1F81209C890E68D63
:070EBE007440F00000000089
:010EC500220A
:070EC60085824C75820122B8
:040ECD00854C8222AC
:040ED1007582002204
:050ED500AA0FAB10ACF8
:0A0EDA00118A828B838CF0E54D1223
:060EE40012FB75820122E1
:040EEA0075820122EA
:0E0EEE00C0E0C082C0835391EF90E65D7402B5
:080EFC00F0D083D082D0E03277
:010F040032BA
:010F050032B9
:010F060032B8
:010F070032B7
:010F080032B6
:010F090032B5
:010F0A0032B4
:010F0B0032B3
:010F0C0032B2
:010F0D0032B1
:010F0E0032B0
:010F0F0032AF
:010F100032AE
:010F110032AD
:010F120032AC
:010F130032AB
:010F140032AA
:010F150032A9
:010F160032A8
:010F170032A7
:010F180032A6
:010F190032A5
:010F1A0032A4
:010F1B0032A3
:010F1C0032A2
:010F1D0032A1
:010F1E0032A0
:010F1F00329F
:010F2000329E
:010F2100329D
:010F2200329C
:010F2300329B
:010F2400329A
:010F25003299
:010F26003298
:010F27003297
:010F28003296
:0E3E000012010002FFFFFF40B4041386000011
:043E0E0000020001AD
:0A3E12000A060002FFFFFF40010056
:093E1C0009022E000101008032B0
:0E3E25000904000004FFFFFF000705860200ED
:0E3E330002000705020200020007050102401E
:093E4100000007058102400000A9
:093E4A0009022E00010100803282
:0E3E53000904000004FF00000007058602407D
:0E3E61000001070502024000010705010240B2
:093E6F000000070581024000007B
:043E78000403090432
:0E3E7C001003430079007000720065007300AF
:023E8A007300C3
:0E3E8C001A035A0079006400720075006E007F
:0C3E9A00610073004C004D003200760007
:0E3EA6001003420075006C006B002D004900F7
:023EB4004F00BD
:023EB60000000A
:0601EA00E478FFF6D8FDE9
:0801C8007900E94400601B7A94
:0501D0000090138A7885
:0301D5000175921F
:0A01D8003CE493F2A308B80002050E
:0801E20092D9F4DAF27592FFE4
:07021F00750900750A007566
:030226000B4A750B
:030229000C3E7513
:03022C000D1C7531
:02022F000E3E81
:0C0F290090E6B9E0FA24F450030210290D
:070F3500EA2A2A900F3C7329
:070F3C00020F60020F7502B5
:060F43001029020F8A02D2
:060F49001029021029022C
:060F4F000F9F02102902B1
:060F55000FA5020FBD0212
:050F5B000FD702100B8E
:0A0F600012109DE582600302103EAE
:0B0F6A0090E6A0E0FA4401F002103E07
:0A0F7500121129E582600302103E0C
:0B0F7F0090E6A0E0FA4401F002103EF2
:0A0F8A00121177E582600302103EA9
:0B0F940090E6A0E0FA4401F002103EDD
:060F9F0012122A02103EAE
:0E0FA500120ECDAA8290E740EAF090E68AE4B0
:0A0FB300F090E68B7401F002103E8E
:0E0FBD0090E6BAE0F582120EC6E582600302ED
:020FCB00103ED6
:0A0FCD0090E6A0E0FA4401F080670E
:090FD70090E6BCE0FA750F087504
:080FE00010007511408A821215
:0E0FE8000ED5E582700A90E6A0E0FA4401F012
:020FF600804633
:0C0FF80090E740E508F090E68AE4F090F5
:07100400E68B7401F080335C
:0C100B0090E6BCE0FA90E6BAE0F50F8A2F
:0E10170082120EEAE582701F90E6A0E0FA4415
:0410250001F0801541
:0E10290090E6B9E0F582120ED1E582700890D3
:07103700E6A0E0FA4401F01D
:08103E0090E6A0E04480F022DE
:0E104600AA82747F5AFB24F74049EB2B2B90B3
:03105400105773BF
:071057000210720210760284
:06105E0010890210990246
:06106400108D021099023C
:06106A0010910210990232
:021070001095D9
:0410720090E6A02242
:0A107600EA30E7067AA27BE6800468
:041080007AA17BE6F0
:051084008A828B83222B
:0410890090E6A32228
:04108D0090E6A42223
:0410910090E6A5221E
:0410950090E6A62219
:0410990090000022A1
:0A109D0090E6B8E0FABA8002802263
:0510A700BA810280087F
:0510AC00BA820280374A
:0310B10002112108
:0E10B40090E740E4F090E741F090E68AF0907B
:0710C200E68B7402F0805C74
:0A10C900E50A25E0FAE5094202906D
:0E10D300E740EAF090E741E4F090E68AF09002
:0710E100E68B7402F0803D74
:0E10E80090E6BCE0F582121046AA82AB83EAC5
:0610F6004B7003F582229D
:0D10FC008A828B83E0FA30E0047A018002E2
:021109007A006A
:0E110B0090E740EAF090E741E4F090E68AF0C9
:0811190090E68B7402F08004E3
:0411210075820022B1
:0411250075820122AC
:0C11290090E6B8E0FA6005BA02378011C9
:0C11350090E6BAE0FABA0105750A0080E5
:01114100317C
:041142007582002290
:0D11460090E6BAE0701A90E6BCE0F5821267
:0E1153001046AA82AB83E0FC5304FE8A828B16
:0511610083ECF0800D9D
:04116600758200226C
:09116A0090E6B9E0F582020ED115
:04117300758201225E
:0C11770090E6B8E0FA6008BA0202801F9F
:031183000211F264
:0B11860090E6BAE0FABA02030211FB87
:0C11910090E6BAE0FABA0105750A018088
:01119D005DF4
:04119E007582002234
:0D11A20090E6BAE0704690E6BCE0F58212DF
:0D11AF001046AA82AB83EA4B7003F5822242
:0E11BC008A828B83E0FC4304018A828B83ECE1
:0E11CA00F090E6BCE0FA53020F90E6BCE05451
:0D11D80080C423541FFB90E683EB2AF090A7
:0911E500E683E0FA4420F0800DDD
:0411EE0075820022E4
:0911F20090E6B9E0F582020ED18D
:0411FB0075820122D6
:0911FF00AA82D20410AF02C2045E
:07120800EA600E750B1C7576
:03120F000C3E751D
:031212000D4A750D
:041215000E3E800CFD
:04121900750B4A7592
:03121D000C3E750F
:031220000D1C752D
:021223000E3E7D
:05122500A20492AF22BB
:0A122A0090E6BBE0FABA0102801959
:05123400BA0202802750
:05123900BA0302803041
:06123E00BA06030212D201
:06124400BA07030212E5E7
:03124A000212F39A
:0A124D007A007B3E90E6B3EBF07AE6
:09125700007B3E90E6B4EAF022AF
:0912600090E6B3E50CF0AA0B9036
:05126900E6B4EAF022EA
:0A126E007A787B3E7C8090E6BAE0BF
:03127800FD7E00F8
:09127B008E070EEDB50702803666
:0E1284008A828B838CF012136A2AFAE43BFBF9
:0E12920074012AFFE43BF88C018F8288838967
:0A12A000F012136AFFBF030280067C
:0612AA007A007B007C00CD
:0A12B000EA4B4C6005C3ED9E50C1EF
:0E12BA00EA4B4C600B90E6B3EBF090E6B4EA22
:0212C800F02212
:0812CA0090E6A0E04401F022CF
:0A12D2007A127B3E90E6B3EBF07A4F
:0912DC00127B3E90E6B4EAF02218
:0912E50090E6B3E50EF0AA0D90AD
:0512EE00E6B4EAF02265
:0812F30090E6A0E04401F022A6
:0E12FB0020F71030F6118883A88220F507F640
:05130900A883758300BC
:01130E0022BC
:03130F00F280F772
:02131200F022C7
:03004300023F0079
:093F000002077500020EEE00023A
:083F09000F04000207BD0002D5
:083F1100078D000207A5000264
:083F19000F0500020F1A00025F
:083F21000F0600020F07000269
:083F29000F0800020F0900025D
:083F31000F0A00020F0B000251
:083F39000F0C00020F0D000245
:083F41000F0E00020F1A00022E
:083F49000F0F00020F1000022F
:083F51000F1100020F12000223
:083F59000F1300020F14000217
:083F61000F1500020F1A000207
:083F69000F1A00020F1A0002FA
:083F71000F1600020F170002F9
:083F79000F1800020F190002ED
:083F81000F1B00020F1C0002DF
:083F89000F1D00020F1E0002D3
:083F91000F1F00020F200002C7
:083F99000F2100020F220002BB
:083FA1000F2300020F240002AF
:083FA9000F2500020F260002A3
:073FB1000F2700020F28009A
:0801F0007800E84400600A7980
:0301F800007592FD
:0601FB003CE4F309D8FC0E
:080201007801E84400600C796B
:0B02090001903C00E4F0A3D8FCD9FAFF
:0E131400AA82AB8390E600E05418C423541F55
:04132200FCB4010016
:0B132600E433FC60067CB17D00801CFD
:0E13310090E600E05418C423541FFEBE0106CF
:06133F007E617F018004C5
:041345007EC27F02E3
:041349008E048F057A
:04134D008C0F8D1064
:08135100150F74FFB50F021522
:011359001083
:0A135A00E50F451070F11ABAFF010B
:011364001B6D
:05136500EA4B70E422D8
:0301BB00758166E5
:0A01BE00121386E58260030201B609
:0E136A0020F71430F6148883A88220F507E6D9
:06137800A883758300222A
:03137E00E280F713
:03138100E49322D0
:02138400E02265
:04138600758200224A
:00000001FF
